{
  "abi": [
    {
      "type": "constructor",
      "inputs": [
        {
          "name": "erc6492SigValidator",
          "type": "address",
          "internalType": "address"
        }
      ],
      "stateMutability": "nonpayable"
    },
    {
      "type": "function",
      "name": "ERC6492_SIG_VALIDATOR",
      "inputs": [],
      "outputs": [
        {
          "name": "",
          "type": "address",
          "internalType": "contract IERC6492"
        }
      ],
      "stateMutability": "view"
    },
    {
      "type": "function",
      "name": "domainSeparator",
      "inputs": [],
      "outputs": [
        {
          "name": "",
          "type": "bytes32",
          "internalType": "bytes32"
        }
      ],
      "stateMutability": "view"
    },
    {
      "type": "function",
      "name": "eip712Domain",
      "inputs": [],
      "outputs": [
        {
          "name": "fields",
          "type": "bytes1",
          "internalType": "bytes1"
        },
        {
          "name": "name",
          "type": "string",
          "internalType": "string"
        },
        {
          "name": "version",
          "type": "string",
          "internalType": "string"
        },
        {
          "name": "chainId",
          "type": "uint256",
          "internalType": "uint256"
        },
        {
          "name": "verifyingContract",
          "type": "address",
          "internalType": "address"
        },
        {
          "name": "salt",
          "type": "bytes32",
          "internalType": "bytes32"
        },
        {
          "name": "extensions",
          "type": "uint256[]",
          "internalType": "uint256[]"
        }
      ],
      "stateMutability": "view"
    },
    {
      "type": "function",
      "name": "personDigest",
      "inputs": [
        {
          "name": "person",
          "type": "tuple",
          "internalType": "struct Person",
          "components": [
            {
              "name": "name",
              "type": "string",
              "internalType": "string"
            },
            {
              "name": "wallet",
              "type": "address",
              "internalType": "address"
            },
            {
              "name": "message",
              "type": "string",
              "internalType": "string"
            }
          ]
        }
      ],
      "outputs": [
        {
          "name": "digest",
          "type": "bytes32",
          "internalType": "bytes32"
        }
      ],
      "stateMutability": "view"
    },
    {
      "type": "function",
      "name": "verifySignature",
      "inputs": [
        {
          "name": "signer",
          "type": "address",
          "internalType": "address"
        },
        {
          "name": "person",
          "type": "tuple",
          "internalType": "struct Person",
          "components": [
            {
              "name": "name",
              "type": "string",
              "internalType": "string"
            },
            {
              "name": "wallet",
              "type": "address",
              "internalType": "address"
            },
            {
              "name": "message",
              "type": "string",
              "internalType": "string"
            }
          ]
        },
        {
          "name": "signature",
          "type": "bytes",
          "internalType": "bytes"
        }
      ],
      "outputs": [
        {
          "name": "success",
          "type": "bool",
          "internalType": "bool"
        }
      ],
      "stateMutability": "nonpayable"
    },
    {
      "type": "event",
      "name": "EIP712DomainChanged",
      "inputs": [],
      "anonymous": false
    },
    {
      "type": "error",
      "name": "InvalidShortString",
      "inputs": []
    },
    {
      "type": "error",
      "name": "StringTooLong",
      "inputs": [
        {
          "name": "str",
          "type": "string",
          "internalType": "string"
        }
      ]
    }
  ],
  "bytecode": {
    "object": "0x61018060405234801561001157600080fd5b50604051610dc5380380610dc58339810160408190526100309161019d565b604051806060016040528060228152602001610da3602291396040805180820190915260018152603160f81b602082015261006c826000610123565b6101205261007b816001610123565b61014052815160208084019190912060e052815190820120610100524660a05261010860e05161010051604080517f8b73c3c69bb8fe3d512ecc4cf759cc79239f7b179b0ffacaa9a75d522b39400f60208201529081019290925260608201524660808201523060a082015260009060c00160405160208183030381529060405280519060200120905090565b60805250503060c0526001600160a01b03166101605261039c565b600060208351101561013f5761013883610156565b9050610150565b8161014a848261026c565b5060ff90505b92915050565b600080829050601f8151111561018a578260405163305a27a960e01b8152600401610181919061032a565b60405180910390fd5b805161019582610378565b179392505050565b6000602082840312156101af57600080fd5b81516001600160a01b03811681146101c657600080fd5b9392505050565b634e487b7160e01b600052604160045260246000fd5b600181811c908216806101f757607f821691505b60208210810361021757634e487b7160e01b600052602260045260246000fd5b50919050565b601f82111561026757806000526020600020601f840160051c810160208510156102445750805b601f840160051c820191505b818110156102645760008155600101610250565b50505b505050565b81516001600160401b03811115610285576102856101cd565b6102998161029384546101e3565b8461021d565b6020601f8211600181146102cd57600083156102b55750848201515b600019600385901b1c1916600184901b178455610264565b600084815260208120601f198516915b828110156102fd57878501518255602094850194600190920191016102dd565b508482101561031b5786840151600019600387901b60f8161c191681555b50505050600190811b01905550565b602081526000825180602084015260005b81811015610358576020818601810151604086840101520161033b565b506000604082850101526040601f19601f83011684010191505092915050565b805160208083015191908110156102175760001960209190910360031b1b16919050565b60805160a05160c05160e0516101005161012051610140516101605161099c610407600039600081816061015261020201526000610300015260006102d301526000610400015260006103d8015260006103330152600061035d01526000610387015261099c6000f3fe608060405234801561001057600080fd5b50600436106100575760003560e01c80630f0dd6391461005c57806351459344146100a057806384b0196e146100c1578063ab836f2e146100dc578063f698da25146100ff575b600080fd5b6100837f000000000000000000000000000000000000000000000000000000000000000081565b6040516001600160a01b0390911681526020015b60405180910390f35b6100b36100ae3660046106ca565b610107565b604051908152602001610097565b6100c9610196565b604051610097979695949392919061074d565b6100ef6100ea3660046107e5565b6101dc565b6040519015158152602001610097565b6100b361028a565b600080604051806060016040528060318152602001610936603191398051602091820120845180519083012085830151604080880151805190860120905161016e950193845260208401929092526001600160a01b03166040830152606082015260800190565b60405160208183030381529060405280519060200120905061018f81610299565b9392505050565b6000606080600080600060606101aa6102cc565b6101b26102f9565b60408051600080825260208201909252600f60f81b9b939a50919850469750309650945092509050565b6000806101e885610107565b60405163131de3db60e31b81529091506001600160a01b037f000000000000000000000000000000000000000000000000000000000000000016906398ef1ed89061023d908990859089908990600401610891565b6020604051808303816000875af115801561025c573d6000803e3d6000fd5b505050506040513d601f19601f8201168201806040525081019061028091906108d9565b9695505050505050565b6000610294610326565b905090565b60006102c66102a6610326565b8360405161190160f01b8152600281019290925260228201526042902090565b92915050565b60606102947f00000000000000000000000000000000000000000000000000000000000000006000610451565b60606102947f00000000000000000000000000000000000000000000000000000000000000006001610451565b6000306001600160a01b037f00000000000000000000000000000000000000000000000000000000000000001614801561037f57507f000000000000000000000000000000000000000000000000000000000000000046145b156103a957507f000000000000000000000000000000000000000000000000000000000000000090565b610294604080517f8b73c3c69bb8fe3d512ecc4cf759cc79239f7b179b0ffacaa9a75d522b39400f60208201527f0000000000000000000000000000000000000000000000000000000000000000918101919091527f000000000000000000000000000000000000000000000000000000000000000060608201524660808201523060a082015260009060c00160405160208183030381529060405280519060200120905090565b606060ff831461046b57610464836104fd565b90506102c6565b818054610477906108fb565b80601f01602080910402602001604051908101604052809291908181526020018280546104a3906108fb565b80156104f05780601f106104c5576101008083540402835291602001916104f0565b820191906000526020600020905b8154815290600101906020018083116104d357829003601f168201915b5050505050905092915050565b6060600061050a8361053c565b604080516020808252818301909252919250600091906020820181803683375050509182525060208101929092525090565b600060ff8216601f8111156102c657604051632cd44ac360e21b815260040160405180910390fd5b634e487b7160e01b600052604160045260246000fd5b600082601f83011261058b57600080fd5b813567ffffffffffffffff8111156105a5576105a5610564565b604051601f8201601f19908116603f0116810167ffffffffffffffff811182821017156105d4576105d4610564565b6040528181528382016020018510156105ec57600080fd5b816020850160208301376000918101602001919091529392505050565b80356001600160a01b038116811461062057600080fd5b919050565b60006060828403121561063757600080fd5b6040516060810167ffffffffffffffff8111828210171561065a5761065a610564565b604052905080823567ffffffffffffffff81111561067757600080fd5b6106838582860161057a565b82525061069260208401610609565b6020820152604083013567ffffffffffffffff8111156106b157600080fd5b6106bd8582860161057a565b6040830152505092915050565b6000602082840312156106dc57600080fd5b813567ffffffffffffffff8111156106f357600080fd5b6106ff84828501610625565b949350505050565b6000815180845260005b8181101561072d57602081850181015186830182015201610711565b506000602082860101526020601f19601f83011685010191505092915050565b60ff60f81b8816815260e06020820152600061076c60e0830189610707565b828103604084015261077e8189610707565b606084018890526001600160a01b038716608085015260a0840186905283810360c08501528451808252602080870193509091019060005b818110156107d45783518352602093840193909201916001016107b6565b50909b9a5050505050505050505050565b600080600080606085870312156107fb57600080fd5b61080485610609565b9350602085013567ffffffffffffffff81111561082057600080fd5b61082c87828801610625565b935050604085013567ffffffffffffffff81111561084957600080fd5b8501601f8101871361085a57600080fd5b803567ffffffffffffffff81111561087157600080fd5b87602082840101111561088357600080fd5b949793965060200194505050565b6001600160a01b0385168152602081018490526060604082018190528101829052818360808301376000818301608090810191909152601f909201601f191601019392505050565b6000602082840312156108eb57600080fd5b8151801515811461018f57600080fd5b600181811c9082168061090f57607f821691505b60208210810361092f57634e487b7160e01b600052602260045260246000fd5b5091905056fe506572736f6e28737472696e67206e616d652c616464726573732077616c6c65742c737472696e67206d65737361676529a2646970667358221220f4084aa9195071449009d411925c342ca2ea5aa6c50f71aae1a5b64ac09c191a64736f6c634300081a003353657175656e6365205369676e61747572652056616c69646174696f6e2044656d6f",
    "linkReferences": {}
  },
  "methodIdentifiers": {
    "ERC6492_SIG_VALIDATOR()": "0f0dd639",
    "domainSeparator()": "f698da25",
    "eip712Domain()": "84b0196e",
    "personDigest((string,address,string))": "51459344",
    "verifySignature(address,(string,address,string),bytes)": "ab836f2e"
  },
  "id": 32
}