{
  "abi": [
    {
      "type": "function",
      "name": "isValidSig",
      "inputs": [
        {
          "name": "_signer",
          "type": "address",
          "internalType": "address"
        },
        {
          "name": "_hash",
          "type": "bytes32",
          "internalType": "bytes32"
        },
        {
          "name": "_signature",
          "type": "bytes",
          "internalType": "bytes"
        }
      ],
      "outputs": [
        {
          "name": "",
          "type": "bool",
          "internalType": "bool"
        }
      ],
      "stateMutability": "nonpayable"
    },
    {
      "type": "function",
      "name": "isValidSignatureImplementation",
      "inputs": [
        {
          "name": "_signer",
          "type": "address",
          "internalType": "address"
        },
        {
          "name": "_hash",
          "type": "bytes32",
          "internalType": "bytes32"
        },
        {
          "name": "_signature",
          "type": "bytes",
          "internalType": "bytes"
        },
        {
          "name": "allowSideEffects",
          "type": "bool",
          "internalType": "bool"
        },
        {
          "name": "tryPrepare",
          "type": "bool",
          "internalType": "bool"
        }
      ],
      "outputs": [
        {
          "name": "",
          "type": "bool",
          "internalType": "bool"
        }
      ],
      "stateMutability": "nonpayable"
    },
    {
      "type": "function",
      "name": "isValidSignatureWithSideEffects",
      "inputs": [
        {
          "name": "_signer",
          "type": "address",
          "internalType": "address"
        },
        {
          "name": "_hash",
          "type": "bytes32",
          "internalType": "bytes32"
        },
        {
          "name": "_signature",
          "type": "bytes",
          "internalType": "bytes"
        }
      ],
      "outputs": [
        {
          "name": "",
          "type": "bool",
          "internalType": "bool"
        }
      ],
      "stateMutability": "nonpayable"
    },
    {
      "type": "error",
      "name": "ERC1271Revert",
      "inputs": [
        {
          "name": "error",
          "type": "bytes",
          "internalType": "bytes"
        }
      ]
    },
    {
      "type": "error",
      "name": "ERC6492DeployFailed",
      "inputs": [
        {
          "name": "error",
          "type": "bytes",
          "internalType": "bytes"
        }
      ]
    }
  ],
  "bytecode": {
    "object": "0x6080604052348015600f57600080fd5b50610b0d8061001f6000396000f3fe608060405234801561001057600080fd5b50600436106100415760003560e01c8063666653971461004657806398ef1ed81461006d578063e913794914610080575b600080fd5b610059610054366004610712565b610093565b604051901515815260200160405180910390f35b61005961007b366004610797565b610543565b61005961008e366004610797565b61062f565b60006001600160a01b0387163b6060826020871180156100f357507f649264926492649264926492649264926492649264926492649264926492649288886100dc6020826107f3565b6100e8928b929061081a565b6100f191610844565b145b905080156101d2576000606089828a61010d6020826107f3565b9261011a9392919061081a565b8101906101279190610907565b955090925090508415806101385750865b156101cb57600080836001600160a01b03168360405161015891906109a6565b6000604051808303816000865af19150503d8060008114610195576040519150601f19603f3d011682016040523d82523d6000602084013e61019a565b606091505b5091509150816101c85780604051639d0d6e2d60e01b81526004016101bf91906109ee565b60405180910390fd5b50505b505061020c565b87878080601f0160208091040260200160405190810160405280939291908181526020018383808284376000920191909152509294505050505b80806102185750600083115b1561037b57604051630b135d3f60e11b81526001600160a01b038b1690631626ba7e9061024b908c908690600401610a08565b602060405180830381865afa925050508015610284575060408051601f3d908101601f1916820190925261028191810190610a21565b60015b610300573d8080156102b2576040519150601f19603f3d011682016040523d82523d6000602084013e6102b7565b606091505b50851580156102c65750600084115b156102e5576102da8b8b8b8b8b6001610093565b945050505050610539565b80604051636f2a959960e01b81526004016101bf91906109ee565b6001600160e01b03198116630b135d3f60e11b1480158161031f575086155b801561032b5750600085115b1561034b5761033f8c8c8c8c8c6001610093565b95505050505050610539565b841580156103565750825b8015610360575087155b1561036f57806000526001601ffd5b94506105399350505050565b604187146103f15760405162461bcd60e51b815260206004820152603a60248201527f5369676e617475726556616c696461746f72237265636f7665725369676e657260448201527f3a20696e76616c6964207369676e6174757265206c656e67746800000000000060648201526084016101bf565b60006104006020828a8c61081a565b61040991610844565b9050600061041b604060208b8d61081a565b61042491610844565b905060008a8a604081811061043b5761043b610a4b565b919091013560f81c915050601b811480159061045b57508060ff16601c14155b156104be5760405162461bcd60e51b815260206004820152602d60248201527f5369676e617475726556616c696461746f723a20696e76616c6964207369676e60448201526c617475726520762076616c756560981b60648201526084016101bf565b6040805160008152602081018083528e905260ff83169181019190915260608101849052608081018390526001600160a01b038e169060019060a0016020604051602081039080840390855afa15801561051c573d6000803e3d6000fd5b505050602060405103516001600160a01b03161496505050505050505b9695505050505050565b604051636666539760e01b8152600090309063666653979061057390889088908890889088908190600401610a61565b6020604051808303816000875af19250505080156105ae575060408051601f3d908101601f191682019092526105ab91810190610aba565b60015b610624573d8080156105dc576040519150601f19603f3d011682016040523d82523d6000602084013e6105e1565b606091505b5080516001819003610620578160008151811061060057610600610a4b565b6020910101516001600160f81b031916600160f81b149250610627915050565b8082fd5b90505b949350505050565b604051636666539760e01b815260009030906366665397906106609088908890889088906001908990600401610a61565b6020604051808303816000875af115801561067f573d6000803e3d6000fd5b505050506040513d601f19601f820116820180604052508101906106249190610aba565b6001600160a01b03811681146106b857600080fd5b50565b60008083601f8401126106cd57600080fd5b50813567ffffffffffffffff8111156106e557600080fd5b6020830191508360208285010111156106fd57600080fd5b9250929050565b80151581146106b857600080fd5b60008060008060008060a0878903121561072b57600080fd5b8635610736816106a3565b955060208701359450604087013567ffffffffffffffff81111561075957600080fd5b61076589828a016106bb565b909550935050606087013561077981610704565b9150608087013561078981610704565b809150509295509295509295565b600080600080606085870312156107ad57600080fd5b84356107b8816106a3565b935060208501359250604085013567ffffffffffffffff8111156107db57600080fd5b6107e7878288016106bb565b95989497509550505050565b8181038181111561081457634e487b7160e01b600052601160045260246000fd5b92915050565b6000808585111561082a57600080fd5b8386111561083757600080fd5b5050820193919092039150565b8035602083101561081457600019602084900360031b1b1692915050565b634e487b7160e01b600052604160045260246000fd5b600082601f83011261088957600080fd5b813567ffffffffffffffff8111156108a3576108a3610862565b604051601f8201601f19908116603f0116810167ffffffffffffffff811182821017156108d2576108d2610862565b6040528181528382016020018510156108ea57600080fd5b816020850160208301376000918101602001919091529392505050565b60008060006060848603121561091c57600080fd5b8335610927816106a3565b9250602084013567ffffffffffffffff81111561094357600080fd5b61094f86828701610878565b925050604084013567ffffffffffffffff81111561096c57600080fd5b61097886828701610878565b9150509250925092565b60005b8381101561099d578181015183820152602001610985565b50506000910152565b600082516109b8818460208701610982565b9190910192915050565b600081518084526109da816020860160208601610982565b601f01601f19169290920160200192915050565b602081526000610a0160208301846109c2565b9392505050565b82815260406020820152600061062760408301846109c2565b600060208284031215610a3357600080fd5b81516001600160e01b031981168114610a0157600080fd5b634e487b7160e01b600052603260045260246000fd5b6001600160a01b03871681526020810186905260a0604082018190528101849052838560c0830137600060c085830181019190915292151560608201529015156080820152601f909201601f1916909101019392505050565b600060208284031215610acc57600080fd5b8151610a018161070456fea2646970667358221220190b63927ea78a3b3fa2eee5822c6d6888ec5c3805171d9f7b0172ad12510c1664736f6c634300081a0033",
    "linkReferences": {}
  },
  "methodIdentifiers": {
    "isValidSig(address,bytes32,bytes)": "98ef1ed8",
    "isValidSignatureImplementation(address,bytes32,bytes,bool,bool)": "66665397",
    "isValidSignatureWithSideEffects(address,bytes32,bytes)": "e9137949"
  },
  "id": 33
}