{
	"data": {
		"bytecode": {
			"linkReferences": {},
			"object": "6080604052348015600e575f80fd5b506111788061001c5f395ff3fe608060405234801561000f575f80fd5b506004361061003f575f3560e01c806376be4cea146100435780638f0684301461007357806398ef1ed8146100a3575b5f80fd5b61005d600480360381019061005891906108e1565b6100d3565b60405161006a9190610986565b60405180910390f35b61008d6004803603810190610088919061099f565b6105fe565b60405161009a9190610986565b60405180910390f35b6100bd60048036038101906100b8919061099f565b61068d565b6040516100ca9190610986565b60405180910390f35b5f808773ffffffffffffffffffffffffffffffffffffffff163b905060605f7f64926492649264926492649264926492649264926492649264926492649264925f1b888860208b8b90506101279190610a46565b908b8b90509261013993929190610a81565b906101449190610ad1565b1490508015610250575f606089895f9060208d8d90506101649190610a46565b9261017193929190610a81565b81019061017e9190610ca2565b8096508193508294505050505f8514806101955750865b15610249575f808373ffffffffffffffffffffffffffffffffffffffff16836040516101c19190610d7c565b5f604051808303815f865af19150503d805f81146101fa576040519150601f19603f3d011682016040523d82523d5f602084013e6101ff565b606091505b50915091508161024657806040517f9d0d6e2d00000000000000000000000000000000000000000000000000000000815260040161023d9190610dda565b60405180910390fd5b50505b5050610297565b87878080601f0160208091040260200160405190810160405280939291908181526020018383808284375f81840152601f19601f8201169050808301925050505050505091505b80806102a257505f83115b1561046c578973ffffffffffffffffffffffffffffffffffffffff16631626ba7e8a846040518363ffffffff1660e01b81526004016102e2929190610e09565b602060405180830381865afa92505050801561031c57506040513d601f19601f820116820180604052508101906103199190610e8c565b60015b6103b9573d805f811461034a576040519150601f19603f3d011682016040523d82523d5f602084013e61034f565b606091505b508515801561035d57505f84115b1561037c576103718b8b8b8b8b60016100d3565b9450505050506105f4565b806040517f6f2a95990000000000000000000000000000000000000000000000000000000081526004016103b09190610dda565b60405180910390fd5b5f631626ba7e60e01b7bffffffffffffffffffffffffffffffffffffffffffffffffffffffff1916827bffffffffffffffffffffffffffffffffffffffffffffffffffffffff191614905080158015610410575086155b801561041b57505f85115b1561043b5761042f8c8c8c8c8c60016100d3565b955050505050506105f4565b5f851480156104475750825b8015610451575087155b1561045f57805f526001601ffd5b80955050505050506105f4565b604188889050146104b2576040517f08c379a00000000000000000000000000000000000000000000000000000000081526004016104a990610f37565b60405180910390fd5b5f88885f906020926104c693929190610a81565b906104d19190610ad1565b90505f89896020906040926104e893929190610a81565b906104f39190610ad1565b90505f8a8a604081811061050a57610509610f55565b5b9050013560f81c60f81b60f81c9050601b8160ff16141580156105315750601c8160ff1614155b15610571576040517f08c379a000000000000000000000000000000000000000000000000000000000815260040161056890610ff2565b60405180910390fd5b8c73ffffffffffffffffffffffffffffffffffffffff1660018d8386866040515f81526020016040526040516105aa949392919061102b565b6020604051602081039080840390855afa1580156105ca573d5f803e3d5ffd5b5050506020604051035173ffffffffffffffffffffffffffffffffffffffff161496505050505050505b9695505050505050565b5f3073ffffffffffffffffffffffffffffffffffffffff166376be4cea8686868660015f6040518763ffffffff1660e01b8152600401610643969594939291906110a9565b6020604051808303815f875af115801561065f573d5f803e3d5ffd5b505050506040513d601f19601f820116820180604052508101906106839190611117565b9050949350505050565b5f3073ffffffffffffffffffffffffffffffffffffffff166376be4cea868686865f806040518763ffffffff1660e01b81526004016106d1969594939291906110a9565b6020604051808303815f875af192505050801561070c57506040513d601f19601f820116820180604052508101906107099190611117565b60015b6107a0573d805f811461073a576040519150601f19603f3d011682016040523d82523d5f602084013e61073f565b606091505b505f815190506001810361079c57600160f81b825f8151811061076557610764610f55565b5b602001015160f81c60f81b7effffffffffffffffffffffffffffffffffffffffffffffffffffffffffffff191614925050506107a5565b8082fd5b809150505b949350505050565b5f604051905090565b5f80fd5b5f80fd5b5f73ffffffffffffffffffffffffffffffffffffffff82169050919050565b5f6107e7826107be565b9050919050565b6107f7816107dd565b8114610801575f80fd5b50565b5f81359050610812816107ee565b92915050565b5f819050919050565b61082a81610818565b8114610834575f80fd5b50565b5f8135905061084581610821565b92915050565b5f80fd5b5f80fd5b5f80fd5b5f8083601f84011261086c5761086b61084b565b5b8235905067ffffffffffffffff8111156108895761088861084f565b5b6020830191508360018202830111156108a5576108a4610853565b5b9250929050565b5f8115159050919050565b6108c0816108ac565b81146108ca575f80fd5b50565b5f813590506108db816108b7565b92915050565b5f805f805f8060a087890312156108fb576108fa6107b6565b5b5f61090889828a01610804565b965050602061091989828a01610837565b955050604087013567ffffffffffffffff81111561093a576109396107ba565b5b61094689828a01610857565b9450945050606061095989828a016108cd565b925050608061096a89828a016108cd565b9150509295509295509295565b610980816108ac565b82525050565b5f6020820190506109995f830184610977565b92915050565b5f805f80606085870312156109b7576109b66107b6565b5b5f6109c487828801610804565b94505060206109d587828801610837565b935050604085013567ffffffffffffffff8111156109f6576109f56107ba565b5b610a0287828801610857565b925092505092959194509250565b5f819050919050565b7f4e487b71000000000000000000000000000000000000000000000000000000005f52601160045260245ffd5b5f610a5082610a10565b9150610a5b83610a10565b9250828203905081811115610a7357610a72610a19565b5b92915050565b5f80fd5b5f80fd5b5f8085851115610a9457610a93610a79565b5b83861115610aa557610aa4610a7d565b5b6001850283019150848603905094509492505050565b5f82905092915050565b5f82821b905092915050565b5f610adc8383610abb565b82610ae78135610818565b92506020821015610b2757610b227fffffffffffffffffffffffffffffffffffffffffffffffffffffffffffffffff83602003600802610ac5565b831692505b505092915050565b5f610b39826107be565b9050919050565b610b4981610b2f565b8114610b53575f80fd5b50565b5f81359050610b6481610b40565b92915050565b5f80fd5b5f601f19601f8301169050919050565b7f4e487b71000000000000000000000000000000000000000000000000000000005f52604160045260245ffd5b610bb482610b6e565b810181811067ffffffffffffffff82111715610bd357610bd2610b7e565b5b80604052505050565b5f610be56107ad565b9050610bf18282610bab565b919050565b5f67ffffffffffffffff821115610c1057610c0f610b7e565b5b610c1982610b6e565b9050602081019050919050565b828183375f83830152505050565b5f610c46610c4184610bf6565b610bdc565b905082815260208101848484011115610c6257610c61610b6a565b5b610c6d848285610c26565b509392505050565b5f82601f830112610c8957610c8861084b565b5b8135610c99848260208601610c34565b91505092915050565b5f805f60608486031215610cb957610cb86107b6565b5b5f610cc686828701610b56565b935050602084013567ffffffffffffffff811115610ce757610ce66107ba565b5b610cf386828701610c75565b925050604084013567ffffffffffffffff811115610d1457610d136107ba565b5b610d2086828701610c75565b9150509250925092565b5f81519050919050565b5f81905092915050565b8281835e5f83830152505050565b5f610d5682610d2a565b610d608185610d34565b9350610d70818560208601610d3e565b80840191505092915050565b5f610d878284610d4c565b915081905092915050565b5f82825260208201905092915050565b5f610dac82610d2a565b610db68185610d92565b9350610dc6818560208601610d3e565b610dcf81610b6e565b840191505092915050565b5f6020820190508181035f830152610df28184610da2565b905092915050565b610e0381610818565b82525050565b5f604082019050610e1c5f830185610dfa565b8181036020830152610e2e8184610da2565b90509392505050565b5f7fffffffff0000000000000000000000000000000000000000000000000000000082169050919050565b610e6b81610e37565b8114610e75575f80fd5b50565b5f81519050610e8681610e62565b92915050565b5f60208284031215610ea157610ea06107b6565b5b5f610eae84828501610e78565b91505092915050565b5f82825260208201905092915050565b7f5369676e617475726556616c696461746f72237265636f7665725369676e65725f8201527f3a20696e76616c6964207369676e6174757265206c656e677468000000000000602082015250565b5f610f21603a83610eb7565b9150610f2c82610ec7565b604082019050919050565b5f6020820190508181035f830152610f4e81610f15565b9050919050565b7f4e487b71000000000000000000000000000000000000000000000000000000005f52603260045260245ffd5b7f5369676e617475726556616c696461746f723a20696e76616c6964207369676e5f8201527f617475726520762076616c756500000000000000000000000000000000000000602082015250565b5f610fdc602d83610eb7565b9150610fe782610f82565b604082019050919050565b5f6020820190508181035f83015261100981610fd0565b9050919050565b5f60ff82169050919050565b61102581611010565b82525050565b5f60808201905061103e5f830187610dfa565b61104b602083018661101c565b6110586040830185610dfa565b6110656060830184610dfa565b95945050505050565b611077816107dd565b82525050565b5f6110888385610d92565b9350611095838584610c26565b61109e83610b6e565b840190509392505050565b5f60a0820190506110bc5f83018961106e565b6110c96020830188610dfa565b81810360408301526110dc81868861107d565b90506110eb6060830185610977565b6110f86080830184610977565b979650505050505050565b5f81519050611111816108b7565b92915050565b5f6020828403121561112c5761112b6107b6565b5b5f61113984828501611103565b9150509291505056fea264697066735822122005e04ee3b89a52048850d3489b9e12513d9e15ccec31ca48ff8c0ec3b82fed8664736f6c634300081a0033",
			"opcodes": "PUSH1 0x80 PUSH1 0x40 MSTORE CALLVALUE DUP1 ISZERO PUSH1 0xE JUMPI PUSH0 DUP1 REVERT JUMPDEST POP PUSH2 0x1178 DUP1 PUSH2 0x1C PUSH0 CODECOPY PUSH0 RETURN INVALID PUSH1 0x80 PUSH1 0x40 MSTORE CALLVALUE DUP1 ISZERO PUSH2 0xF JUMPI PUSH0 DUP1 REVERT JUMPDEST POP PUSH1 0x4 CALLDATASIZE LT PUSH2 0x3F JUMPI PUSH0 CALLDATALOAD PUSH1 0xE0 SHR DUP1 PUSH4 0x76BE4CEA EQ PUSH2 0x43 JUMPI DUP1 PUSH4 0x8F068430 EQ PUSH2 0x73 JUMPI DUP1 PUSH4 0x98EF1ED8 EQ PUSH2 0xA3 JUMPI JUMPDEST PUSH0 DUP1 REVERT JUMPDEST PUSH2 0x5D PUSH1 0x4 DUP1 CALLDATASIZE SUB DUP2 ADD SWAP1 PUSH2 0x58 SWAP2 SWAP1 PUSH2 0x8E1 JUMP JUMPDEST PUSH2 0xD3 JUMP JUMPDEST PUSH1 0x40 MLOAD PUSH2 0x6A SWAP2 SWAP1 PUSH2 0x986 JUMP JUMPDEST PUSH1 0x40 MLOAD DUP1 SWAP2 SUB SWAP1 RETURN JUMPDEST PUSH2 0x8D PUSH1 0x4 DUP1 CALLDATASIZE SUB DUP2 ADD SWAP1 PUSH2 0x88 SWAP2 SWAP1 PUSH2 0x99F JUMP JUMPDEST PUSH2 0x5FE JUMP JUMPDEST PUSH1 0x40 MLOAD PUSH2 0x9A SWAP2 SWAP1 PUSH2 0x986 JUMP JUMPDEST PUSH1 0x40 MLOAD DUP1 SWAP2 SUB SWAP1 RETURN JUMPDEST PUSH2 0xBD PUSH1 0x4 DUP1 CALLDATASIZE SUB DUP2 ADD SWAP1 PUSH2 0xB8 SWAP2 SWAP1 PUSH2 0x99F JUMP JUMPDEST PUSH2 0x68D JUMP JUMPDEST PUSH1 0x40 MLOAD PUSH2 0xCA SWAP2 SWAP1 PUSH2 0x986 JUMP JUMPDEST PUSH1 0x40 MLOAD DUP1 SWAP2 SUB SWAP1 RETURN JUMPDEST PUSH0 DUP1 DUP8 PUSH20 0xFFFFFFFFFFFFFFFFFFFFFFFFFFFFFFFFFFFFFFFF AND EXTCODESIZE SWAP1 POP PUSH1 0x60 PUSH0 PUSH32 0x6492649264926492649264926492649264926492649264926492649264926492 PUSH0 SHL DUP9 DUP9 PUSH1 0x20 DUP12 DUP12 SWAP1 POP PUSH2 0x127 SWAP2 SWAP1 PUSH2 0xA46 JUMP JUMPDEST SWAP1 DUP12 DUP12 SWAP1 POP SWAP3 PUSH2 0x139 SWAP4 SWAP3 SWAP2 SWAP1 PUSH2 0xA81 JUMP JUMPDEST SWAP1 PUSH2 0x144 SWAP2 SWAP1 PUSH2 0xAD1 JUMP JUMPDEST EQ SWAP1 POP DUP1 ISZERO PUSH2 0x250 JUMPI PUSH0 PUSH1 0x60 DUP10 DUP10 PUSH0 SWAP1 PUSH1 0x20 DUP14 DUP14 SWAP1 POP PUSH2 0x164 SWAP2 SWAP1 PUSH2 0xA46 JUMP JUMPDEST SWAP3 PUSH2 0x171 SWAP4 SWAP3 SWAP2 SWAP1 PUSH2 0xA81 JUMP JUMPDEST DUP2 ADD SWAP1 PUSH2 0x17E SWAP2 SWAP1 PUSH2 0xCA2 JUMP JUMPDEST DUP1 SWAP7 POP DUP2 SWAP4 POP DUP3 SWAP5 POP POP POP POP PUSH0 DUP6 EQ DUP1 PUSH2 0x195 JUMPI POP DUP7 JUMPDEST ISZERO PUSH2 0x249 JUMPI PUSH0 DUP1 DUP4 PUSH20 0xFFFFFFFFFFFFFFFFFFFFFFFFFFFFFFFFFFFFFFFF AND DUP4 PUSH1 0x40 MLOAD PUSH2 0x1C1 SWAP2 SWAP1 PUSH2 0xD7C JUMP JUMPDEST PUSH0 PUSH1 0x40 MLOAD DUP1 DUP4 SUB DUP2 PUSH0 DUP7 GAS CALL SWAP2 POP POP RETURNDATASIZE DUP1 PUSH0 DUP2 EQ PUSH2 0x1FA JUMPI PUSH1 0x40 MLOAD SWAP2 POP PUSH1 0x1F NOT PUSH1 0x3F RETURNDATASIZE ADD AND DUP3 ADD PUSH1 0x40 MSTORE RETURNDATASIZE DUP3 MSTORE RETURNDATASIZE PUSH0 PUSH1 0x20 DUP5 ADD RETURNDATACOPY PUSH2 0x1FF JUMP JUMPDEST PUSH1 0x60 SWAP2 POP JUMPDEST POP SWAP2 POP SWAP2 POP DUP2 PUSH2 0x246 JUMPI DUP1 PUSH1 0x40 MLOAD PUSH32 0x9D0D6E2D00000000000000000000000000000000000000000000000000000000 DUP2 MSTORE PUSH1 0x4 ADD PUSH2 0x23D SWAP2 SWAP1 PUSH2 0xDDA JUMP JUMPDEST PUSH1 0x40 MLOAD DUP1 SWAP2 SUB SWAP1 REVERT JUMPDEST POP POP JUMPDEST POP POP PUSH2 0x297 JUMP JUMPDEST DUP8 DUP8 DUP1 DUP1 PUSH1 0x1F ADD PUSH1 0x20 DUP1 SWAP2 DIV MUL PUSH1 0x20 ADD PUSH1 0x40 MLOAD SWAP1 DUP2 ADD PUSH1 0x40 MSTORE DUP1 SWAP4 SWAP3 SWAP2 SWAP1 DUP2 DUP2 MSTORE PUSH1 0x20 ADD DUP4 DUP4 DUP1 DUP3 DUP5 CALLDATACOPY PUSH0 DUP2 DUP5 ADD MSTORE PUSH1 0x1F NOT PUSH1 0x1F DUP3 ADD AND SWAP1 POP DUP1 DUP4 ADD SWAP3 POP POP POP POP POP POP POP SWAP2 POP JUMPDEST DUP1 DUP1 PUSH2 0x2A2 JUMPI POP PUSH0 DUP4 GT JUMPDEST ISZERO PUSH2 0x46C JUMPI DUP10 PUSH20 0xFFFFFFFFFFFFFFFFFFFFFFFFFFFFFFFFFFFFFFFF AND PUSH4 0x1626BA7E DUP11 DUP5 PUSH1 0x40 MLOAD DUP4 PUSH4 0xFFFFFFFF AND PUSH1 0xE0 SHL DUP2 MSTORE PUSH1 0x4 ADD PUSH2 0x2E2 SWAP3 SWAP2 SWAP1 PUSH2 0xE09 JUMP JUMPDEST PUSH1 0x20 PUSH1 0x40 MLOAD DUP1 DUP4 SUB DUP2 DUP7 GAS STATICCALL SWAP3 POP POP POP DUP1 ISZERO PUSH2 0x31C JUMPI POP PUSH1 0x40 MLOAD RETURNDATASIZE PUSH1 0x1F NOT PUSH1 0x1F DUP3 ADD AND DUP3 ADD DUP1 PUSH1 0x40 MSTORE POP DUP2 ADD SWAP1 PUSH2 0x319 SWAP2 SWAP1 PUSH2 0xE8C JUMP JUMPDEST PUSH1 0x1 JUMPDEST PUSH2 0x3B9 JUMPI RETURNDATASIZE DUP1 PUSH0 DUP2 EQ PUSH2 0x34A JUMPI PUSH1 0x40 MLOAD SWAP2 POP PUSH1 0x1F NOT PUSH1 0x3F RETURNDATASIZE ADD AND DUP3 ADD PUSH1 0x40 MSTORE RETURNDATASIZE DUP3 MSTORE RETURNDATASIZE PUSH0 PUSH1 0x20 DUP5 ADD RETURNDATACOPY PUSH2 0x34F JUMP JUMPDEST PUSH1 0x60 SWAP2 POP JUMPDEST POP DUP6 ISZERO DUP1 ISZERO PUSH2 0x35D JUMPI POP PUSH0 DUP5 GT JUMPDEST ISZERO PUSH2 0x37C JUMPI PUSH2 0x371 DUP12 DUP12 DUP12 DUP12 DUP12 PUSH1 0x1 PUSH2 0xD3 JUMP JUMPDEST SWAP5 POP POP POP POP POP PUSH2 0x5F4 JUMP JUMPDEST DUP1 PUSH1 0x40 MLOAD PUSH32 0x6F2A959900000000000000000000000000000000000000000000000000000000 DUP2 MSTORE PUSH1 0x4 ADD PUSH2 0x3B0 SWAP2 SWAP1 PUSH2 0xDDA JUMP JUMPDEST PUSH1 0x40 MLOAD DUP1 SWAP2 SUB SWAP1 REVERT JUMPDEST PUSH0 PUSH4 0x1626BA7E PUSH1 0xE0 SHL PUSH28 0xFFFFFFFFFFFFFFFFFFFFFFFFFFFFFFFFFFFFFFFFFFFFFFFFFFFFFFFF NOT AND DUP3 PUSH28 0xFFFFFFFFFFFFFFFFFFFFFFFFFFFFFFFFFFFFFFFFFFFFFFFFFFFFFFFF NOT AND EQ SWAP1 POP DUP1 ISZERO DUP1 ISZERO PUSH2 0x410 JUMPI POP DUP7 ISZERO JUMPDEST DUP1 ISZERO PUSH2 0x41B JUMPI POP PUSH0 DUP6 GT JUMPDEST ISZERO PUSH2 0x43B JUMPI PUSH2 0x42F DUP13 DUP13 DUP13 DUP13 DUP13 PUSH1 0x1 PUSH2 0xD3 JUMP JUMPDEST SWAP6 POP POP POP POP POP POP PUSH2 0x5F4 JUMP JUMPDEST PUSH0 DUP6 EQ DUP1 ISZERO PUSH2 0x447 JUMPI POP DUP3 JUMPDEST DUP1 ISZERO PUSH2 0x451 JUMPI POP DUP8 ISZERO JUMPDEST ISZERO PUSH2 0x45F JUMPI DUP1 PUSH0 MSTORE PUSH1 0x1 PUSH1 0x1F REVERT JUMPDEST DUP1 SWAP6 POP POP POP POP POP POP PUSH2 0x5F4 JUMP JUMPDEST PUSH1 0x41 DUP9 DUP9 SWAP1 POP EQ PUSH2 0x4B2 JUMPI PUSH1 0x40 MLOAD PUSH32 0x8C379A000000000000000000000000000000000000000000000000000000000 DUP2 MSTORE PUSH1 0x4 ADD PUSH2 0x4A9 SWAP1 PUSH2 0xF37 JUMP JUMPDEST PUSH1 0x40 MLOAD DUP1 SWAP2 SUB SWAP1 REVERT JUMPDEST PUSH0 DUP9 DUP9 PUSH0 SWAP1 PUSH1 0x20 SWAP3 PUSH2 0x4C6 SWAP4 SWAP3 SWAP2 SWAP1 PUSH2 0xA81 JUMP JUMPDEST SWAP1 PUSH2 0x4D1 SWAP2 SWAP1 PUSH2 0xAD1 JUMP JUMPDEST SWAP1 POP PUSH0 DUP10 DUP10 PUSH1 0x20 SWAP1 PUSH1 0x40 SWAP3 PUSH2 0x4E8 SWAP4 SWAP3 SWAP2 SWAP1 PUSH2 0xA81 JUMP JUMPDEST SWAP1 PUSH2 0x4F3 SWAP2 SWAP1 PUSH2 0xAD1 JUMP JUMPDEST SWAP1 POP PUSH0 DUP11 DUP11 PUSH1 0x40 DUP2 DUP2 LT PUSH2 0x50A JUMPI PUSH2 0x509 PUSH2 0xF55 JUMP JUMPDEST JUMPDEST SWAP1 POP ADD CALLDATALOAD PUSH1 0xF8 SHR PUSH1 0xF8 SHL PUSH1 0xF8 SHR SWAP1 POP PUSH1 0x1B DUP2 PUSH1 0xFF AND EQ ISZERO DUP1 ISZERO PUSH2 0x531 JUMPI POP PUSH1 0x1C DUP2 PUSH1 0xFF AND EQ ISZERO JUMPDEST ISZERO PUSH2 0x571 JUMPI PUSH1 0x40 MLOAD PUSH32 0x8C379A000000000000000000000000000000000000000000000000000000000 DUP2 MSTORE PUSH1 0x4 ADD PUSH2 0x568 SWAP1 PUSH2 0xFF2 JUMP JUMPDEST PUSH1 0x40 MLOAD DUP1 SWAP2 SUB SWAP1 REVERT JUMPDEST DUP13 PUSH20 0xFFFFFFFFFFFFFFFFFFFFFFFFFFFFFFFFFFFFFFFF AND PUSH1 0x1 DUP14 DUP4 DUP7 DUP7 PUSH1 0x40 MLOAD PUSH0 DUP2 MSTORE PUSH1 0x20 ADD PUSH1 0x40 MSTORE PUSH1 0x40 MLOAD PUSH2 0x5AA SWAP5 SWAP4 SWAP3 SWAP2 SWAP1 PUSH2 0x102B JUMP JUMPDEST PUSH1 0x20 PUSH1 0x40 MLOAD PUSH1 0x20 DUP2 SUB SWAP1 DUP1 DUP5 SUB SWAP1 DUP6 GAS STATICCALL ISZERO DUP1 ISZERO PUSH2 0x5CA JUMPI RETURNDATASIZE PUSH0 DUP1 RETURNDATACOPY RETURNDATASIZE PUSH0 REVERT JUMPDEST POP POP POP PUSH1 0x20 PUSH1 0x40 MLOAD SUB MLOAD PUSH20 0xFFFFFFFFFFFFFFFFFFFFFFFFFFFFFFFFFFFFFFFF AND EQ SWAP7 POP POP POP POP POP POP POP JUMPDEST SWAP7 SWAP6 POP POP POP POP POP POP JUMP JUMPDEST PUSH0 ADDRESS PUSH20 0xFFFFFFFFFFFFFFFFFFFFFFFFFFFFFFFFFFFFFFFF AND PUSH4 0x76BE4CEA DUP7 DUP7 DUP7 DUP7 PUSH1 0x1 PUSH0 PUSH1 0x40 MLOAD DUP8 PUSH4 0xFFFFFFFF AND PUSH1 0xE0 SHL DUP2 MSTORE PUSH1 0x4 ADD PUSH2 0x643 SWAP7 SWAP6 SWAP5 SWAP4 SWAP3 SWAP2 SWAP1 PUSH2 0x10A9 JUMP JUMPDEST PUSH1 0x20 PUSH1 0x40 MLOAD DUP1 DUP4 SUB DUP2 PUSH0 DUP8 GAS CALL ISZERO DUP1 ISZERO PUSH2 0x65F JUMPI RETURNDATASIZE PUSH0 DUP1 RETURNDATACOPY RETURNDATASIZE PUSH0 REVERT JUMPDEST POP POP POP POP PUSH1 0x40 MLOAD RETURNDATASIZE PUSH1 0x1F NOT PUSH1 0x1F DUP3 ADD AND DUP3 ADD DUP1 PUSH1 0x40 MSTORE POP DUP2 ADD SWAP1 PUSH2 0x683 SWAP2 SWAP1 PUSH2 0x1117 JUMP JUMPDEST SWAP1 POP SWAP5 SWAP4 POP POP POP POP JUMP JUMPDEST PUSH0 ADDRESS PUSH20 0xFFFFFFFFFFFFFFFFFFFFFFFFFFFFFFFFFFFFFFFF AND PUSH4 0x76BE4CEA DUP7 DUP7 DUP7 DUP7 PUSH0 DUP1 PUSH1 0x40 MLOAD DUP8 PUSH4 0xFFFFFFFF AND PUSH1 0xE0 SHL DUP2 MSTORE PUSH1 0x4 ADD PUSH2 0x6D1 SWAP7 SWAP6 SWAP5 SWAP4 SWAP3 SWAP2 SWAP1 PUSH2 0x10A9 JUMP JUMPDEST PUSH1 0x20 PUSH1 0x40 MLOAD DUP1 DUP4 SUB DUP2 PUSH0 DUP8 GAS CALL SWAP3 POP POP POP DUP1 ISZERO PUSH2 0x70C JUMPI POP PUSH1 0x40 MLOAD RETURNDATASIZE PUSH1 0x1F NOT PUSH1 0x1F DUP3 ADD AND DUP3 ADD DUP1 PUSH1 0x40 MSTORE POP DUP2 ADD SWAP1 PUSH2 0x709 SWAP2 SWAP1 PUSH2 0x1117 JUMP JUMPDEST PUSH1 0x1 JUMPDEST PUSH2 0x7A0 JUMPI RETURNDATASIZE DUP1 PUSH0 DUP2 EQ PUSH2 0x73A JUMPI PUSH1 0x40 MLOAD SWAP2 POP PUSH1 0x1F NOT PUSH1 0x3F RETURNDATASIZE ADD AND DUP3 ADD PUSH1 0x40 MSTORE RETURNDATASIZE DUP3 MSTORE RETURNDATASIZE PUSH0 PUSH1 0x20 DUP5 ADD RETURNDATACOPY PUSH2 0x73F JUMP JUMPDEST PUSH1 0x60 SWAP2 POP JUMPDEST POP PUSH0 DUP2 MLOAD SWAP1 POP PUSH1 0x1 DUP2 SUB PUSH2 0x79C JUMPI PUSH1 0x1 PUSH1 0xF8 SHL DUP3 PUSH0 DUP2 MLOAD DUP2 LT PUSH2 0x765 JUMPI PUSH2 0x764 PUSH2 0xF55 JUMP JUMPDEST JUMPDEST PUSH1 0x20 ADD ADD MLOAD PUSH1 0xF8 SHR PUSH1 0xF8 SHL PUSH31 0xFFFFFFFFFFFFFFFFFFFFFFFFFFFFFFFFFFFFFFFFFFFFFFFFFFFFFFFFFFFFFF NOT AND EQ SWAP3 POP POP POP PUSH2 0x7A5 JUMP JUMPDEST DUP1 DUP3 REVERT JUMPDEST DUP1 SWAP2 POP POP JUMPDEST SWAP5 SWAP4 POP POP POP POP JUMP JUMPDEST PUSH0 PUSH1 0x40 MLOAD SWAP1 POP SWAP1 JUMP JUMPDEST PUSH0 DUP1 REVERT JUMPDEST PUSH0 DUP1 REVERT JUMPDEST PUSH0 PUSH20 0xFFFFFFFFFFFFFFFFFFFFFFFFFFFFFFFFFFFFFFFF DUP3 AND SWAP1 POP SWAP2 SWAP1 POP JUMP JUMPDEST PUSH0 PUSH2 0x7E7 DUP3 PUSH2 0x7BE JUMP JUMPDEST SWAP1 POP SWAP2 SWAP1 POP JUMP JUMPDEST PUSH2 0x7F7 DUP2 PUSH2 0x7DD JUMP JUMPDEST DUP2 EQ PUSH2 0x801 JUMPI PUSH0 DUP1 REVERT JUMPDEST POP JUMP JUMPDEST PUSH0 DUP2 CALLDATALOAD SWAP1 POP PUSH2 0x812 DUP2 PUSH2 0x7EE JUMP JUMPDEST SWAP3 SWAP2 POP POP JUMP JUMPDEST PUSH0 DUP2 SWAP1 POP SWAP2 SWAP1 POP JUMP JUMPDEST PUSH2 0x82A DUP2 PUSH2 0x818 JUMP JUMPDEST DUP2 EQ PUSH2 0x834 JUMPI PUSH0 DUP1 REVERT JUMPDEST POP JUMP JUMPDEST PUSH0 DUP2 CALLDATALOAD SWAP1 POP PUSH2 0x845 DUP2 PUSH2 0x821 JUMP JUMPDEST SWAP3 SWAP2 POP POP JUMP JUMPDEST PUSH0 DUP1 REVERT JUMPDEST PUSH0 DUP1 REVERT JUMPDEST PUSH0 DUP1 REVERT JUMPDEST PUSH0 DUP1 DUP4 PUSH1 0x1F DUP5 ADD SLT PUSH2 0x86C JUMPI PUSH2 0x86B PUSH2 0x84B JUMP JUMPDEST JUMPDEST DUP3 CALLDATALOAD SWAP1 POP PUSH8 0xFFFFFFFFFFFFFFFF DUP2 GT ISZERO PUSH2 0x889 JUMPI PUSH2 0x888 PUSH2 0x84F JUMP JUMPDEST JUMPDEST PUSH1 0x20 DUP4 ADD SWAP2 POP DUP4 PUSH1 0x1 DUP3 MUL DUP4 ADD GT ISZERO PUSH2 0x8A5 JUMPI PUSH2 0x8A4 PUSH2 0x853 JUMP JUMPDEST JUMPDEST SWAP3 POP SWAP3 SWAP1 POP JUMP JUMPDEST PUSH0 DUP2 ISZERO ISZERO SWAP1 POP SWAP2 SWAP1 POP JUMP JUMPDEST PUSH2 0x8C0 DUP2 PUSH2 0x8AC JUMP JUMPDEST DUP2 EQ PUSH2 0x8CA JUMPI PUSH0 DUP1 REVERT JUMPDEST POP JUMP JUMPDEST PUSH0 DUP2 CALLDATALOAD SWAP1 POP PUSH2 0x8DB DUP2 PUSH2 0x8B7 JUMP JUMPDEST SWAP3 SWAP2 POP POP JUMP JUMPDEST PUSH0 DUP1 PUSH0 DUP1 PUSH0 DUP1 PUSH1 0xA0 DUP8 DUP10 SUB SLT ISZERO PUSH2 0x8FB JUMPI PUSH2 0x8FA PUSH2 0x7B6 JUMP JUMPDEST JUMPDEST PUSH0 PUSH2 0x908 DUP10 DUP3 DUP11 ADD PUSH2 0x804 JUMP JUMPDEST SWAP7 POP POP PUSH1 0x20 PUSH2 0x919 DUP10 DUP3 DUP11 ADD PUSH2 0x837 JUMP JUMPDEST SWAP6 POP POP PUSH1 0x40 DUP8 ADD CALLDATALOAD PUSH8 0xFFFFFFFFFFFFFFFF DUP2 GT ISZERO PUSH2 0x93A JUMPI PUSH2 0x939 PUSH2 0x7BA JUMP JUMPDEST JUMPDEST PUSH2 0x946 DUP10 DUP3 DUP11 ADD PUSH2 0x857 JUMP JUMPDEST SWAP5 POP SWAP5 POP POP PUSH1 0x60 PUSH2 0x959 DUP10 DUP3 DUP11 ADD PUSH2 0x8CD JUMP JUMPDEST SWAP3 POP POP PUSH1 0x80 PUSH2 0x96A DUP10 DUP3 DUP11 ADD PUSH2 0x8CD JUMP JUMPDEST SWAP2 POP POP SWAP3 SWAP6 POP SWAP3 SWAP6 POP SWAP3 SWAP6 JUMP JUMPDEST PUSH2 0x980 DUP2 PUSH2 0x8AC JUMP JUMPDEST DUP3 MSTORE POP POP JUMP JUMPDEST PUSH0 PUSH1 0x20 DUP3 ADD SWAP1 POP PUSH2 0x999 PUSH0 DUP4 ADD DUP5 PUSH2 0x977 JUMP JUMPDEST SWAP3 SWAP2 POP POP JUMP JUMPDEST PUSH0 DUP1 PUSH0 DUP1 PUSH1 0x60 DUP6 DUP8 SUB SLT ISZERO PUSH2 0x9B7 JUMPI PUSH2 0x9B6 PUSH2 0x7B6 JUMP JUMPDEST JUMPDEST PUSH0 PUSH2 0x9C4 DUP8 DUP3 DUP9 ADD PUSH2 0x804 JUMP JUMPDEST SWAP5 POP POP PUSH1 0x20 PUSH2 0x9D5 DUP8 DUP3 DUP9 ADD PUSH2 0x837 JUMP JUMPDEST SWAP4 POP POP PUSH1 0x40 DUP6 ADD CALLDATALOAD PUSH8 0xFFFFFFFFFFFFFFFF DUP2 GT ISZERO PUSH2 0x9F6 JUMPI PUSH2 0x9F5 PUSH2 0x7BA JUMP JUMPDEST JUMPDEST PUSH2 0xA02 DUP8 DUP3 DUP9 ADD PUSH2 0x857 JUMP JUMPDEST SWAP3 POP SWAP3 POP POP SWAP3 SWAP6 SWAP2 SWAP5 POP SWAP3 POP JUMP JUMPDEST PUSH0 DUP2 SWAP1 POP SWAP2 SWAP1 POP JUMP JUMPDEST PUSH32 0x4E487B7100000000000000000000000000000000000000000000000000000000 PUSH0 MSTORE PUSH1 0x11 PUSH1 0x4 MSTORE PUSH1 0x24 PUSH0 REVERT JUMPDEST PUSH0 PUSH2 0xA50 DUP3 PUSH2 0xA10 JUMP JUMPDEST SWAP2 POP PUSH2 0xA5B DUP4 PUSH2 0xA10 JUMP JUMPDEST SWAP3 POP DUP3 DUP3 SUB SWAP1 POP DUP2 DUP2 GT ISZERO PUSH2 0xA73 JUMPI PUSH2 0xA72 PUSH2 0xA19 JUMP JUMPDEST JUMPDEST SWAP3 SWAP2 POP POP JUMP JUMPDEST PUSH0 DUP1 REVERT JUMPDEST PUSH0 DUP1 REVERT JUMPDEST PUSH0 DUP1 DUP6 DUP6 GT ISZERO PUSH2 0xA94 JUMPI PUSH2 0xA93 PUSH2 0xA79 JUMP JUMPDEST JUMPDEST DUP4 DUP7 GT ISZERO PUSH2 0xAA5 JUMPI PUSH2 0xAA4 PUSH2 0xA7D JUMP JUMPDEST JUMPDEST PUSH1 0x1 DUP6 MUL DUP4 ADD SWAP2 POP DUP5 DUP7 SUB SWAP1 POP SWAP5 POP SWAP5 SWAP3 POP POP POP JUMP JUMPDEST PUSH0 DUP3 SWAP1 POP SWAP3 SWAP2 POP POP JUMP JUMPDEST PUSH0 DUP3 DUP3 SHL SWAP1 POP SWAP3 SWAP2 POP POP JUMP JUMPDEST PUSH0 PUSH2 0xADC DUP4 DUP4 PUSH2 0xABB JUMP JUMPDEST DUP3 PUSH2 0xAE7 DUP2 CALLDATALOAD PUSH2 0x818 JUMP JUMPDEST SWAP3 POP PUSH1 0x20 DUP3 LT ISZERO PUSH2 0xB27 JUMPI PUSH2 0xB22 PUSH32 0xFFFFFFFFFFFFFFFFFFFFFFFFFFFFFFFFFFFFFFFFFFFFFFFFFFFFFFFFFFFFFFFF DUP4 PUSH1 0x20 SUB PUSH1 0x8 MUL PUSH2 0xAC5 JUMP JUMPDEST DUP4 AND SWAP3 POP JUMPDEST POP POP SWAP3 SWAP2 POP POP JUMP JUMPDEST PUSH0 PUSH2 0xB39 DUP3 PUSH2 0x7BE JUMP JUMPDEST SWAP1 POP SWAP2 SWAP1 POP JUMP JUMPDEST PUSH2 0xB49 DUP2 PUSH2 0xB2F JUMP JUMPDEST DUP2 EQ PUSH2 0xB53 JUMPI PUSH0 DUP1 REVERT JUMPDEST POP JUMP JUMPDEST PUSH0 DUP2 CALLDATALOAD SWAP1 POP PUSH2 0xB64 DUP2 PUSH2 0xB40 JUMP JUMPDEST SWAP3 SWAP2 POP POP JUMP JUMPDEST PUSH0 DUP1 REVERT JUMPDEST PUSH0 PUSH1 0x1F NOT PUSH1 0x1F DUP4 ADD AND SWAP1 POP SWAP2 SWAP1 POP JUMP JUMPDEST PUSH32 0x4E487B7100000000000000000000000000000000000000000000000000000000 PUSH0 MSTORE PUSH1 0x41 PUSH1 0x4 MSTORE PUSH1 0x24 PUSH0 REVERT JUMPDEST PUSH2 0xBB4 DUP3 PUSH2 0xB6E JUMP JUMPDEST DUP2 ADD DUP2 DUP2 LT PUSH8 0xFFFFFFFFFFFFFFFF DUP3 GT OR ISZERO PUSH2 0xBD3 JUMPI PUSH2 0xBD2 PUSH2 0xB7E JUMP JUMPDEST JUMPDEST DUP1 PUSH1 0x40 MSTORE POP POP POP JUMP JUMPDEST PUSH0 PUSH2 0xBE5 PUSH2 0x7AD JUMP JUMPDEST SWAP1 POP PUSH2 0xBF1 DUP3 DUP3 PUSH2 0xBAB JUMP JUMPDEST SWAP2 SWAP1 POP JUMP JUMPDEST PUSH0 PUSH8 0xFFFFFFFFFFFFFFFF DUP3 GT ISZERO PUSH2 0xC10 JUMPI PUSH2 0xC0F PUSH2 0xB7E JUMP JUMPDEST JUMPDEST PUSH2 0xC19 DUP3 PUSH2 0xB6E JUMP JUMPDEST SWAP1 POP PUSH1 0x20 DUP2 ADD SWAP1 POP SWAP2 SWAP1 POP JUMP JUMPDEST DUP3 DUP2 DUP4 CALLDATACOPY PUSH0 DUP4 DUP4 ADD MSTORE POP POP POP JUMP JUMPDEST PUSH0 PUSH2 0xC46 PUSH2 0xC41 DUP5 PUSH2 0xBF6 JUMP JUMPDEST PUSH2 0xBDC JUMP JUMPDEST SWAP1 POP DUP3 DUP2 MSTORE PUSH1 0x20 DUP2 ADD DUP5 DUP5 DUP5 ADD GT ISZERO PUSH2 0xC62 JUMPI PUSH2 0xC61 PUSH2 0xB6A JUMP JUMPDEST JUMPDEST PUSH2 0xC6D DUP5 DUP3 DUP6 PUSH2 0xC26 JUMP JUMPDEST POP SWAP4 SWAP3 POP POP POP JUMP JUMPDEST PUSH0 DUP3 PUSH1 0x1F DUP4 ADD SLT PUSH2 0xC89 JUMPI PUSH2 0xC88 PUSH2 0x84B JUMP JUMPDEST JUMPDEST DUP2 CALLDATALOAD PUSH2 0xC99 DUP5 DUP3 PUSH1 0x20 DUP7 ADD PUSH2 0xC34 JUMP JUMPDEST SWAP2 POP POP SWAP3 SWAP2 POP POP JUMP JUMPDEST PUSH0 DUP1 PUSH0 PUSH1 0x60 DUP5 DUP7 SUB SLT ISZERO PUSH2 0xCB9 JUMPI PUSH2 0xCB8 PUSH2 0x7B6 JUMP JUMPDEST JUMPDEST PUSH0 PUSH2 0xCC6 DUP7 DUP3 DUP8 ADD PUSH2 0xB56 JUMP JUMPDEST SWAP4 POP POP PUSH1 0x20 DUP5 ADD CALLDATALOAD PUSH8 0xFFFFFFFFFFFFFFFF DUP2 GT ISZERO PUSH2 0xCE7 JUMPI PUSH2 0xCE6 PUSH2 0x7BA JUMP JUMPDEST JUMPDEST PUSH2 0xCF3 DUP7 DUP3 DUP8 ADD PUSH2 0xC75 JUMP JUMPDEST SWAP3 POP POP PUSH1 0x40 DUP5 ADD CALLDATALOAD PUSH8 0xFFFFFFFFFFFFFFFF DUP2 GT ISZERO PUSH2 0xD14 JUMPI PUSH2 0xD13 PUSH2 0x7BA JUMP JUMPDEST JUMPDEST PUSH2 0xD20 DUP7 DUP3 DUP8 ADD PUSH2 0xC75 JUMP JUMPDEST SWAP2 POP POP SWAP3 POP SWAP3 POP SWAP3 JUMP JUMPDEST PUSH0 DUP2 MLOAD SWAP1 POP SWAP2 SWAP1 POP JUMP JUMPDEST PUSH0 DUP2 SWAP1 POP SWAP3 SWAP2 POP POP JUMP JUMPDEST DUP3 DUP2 DUP4 MCOPY PUSH0 DUP4 DUP4 ADD MSTORE POP POP POP JUMP JUMPDEST PUSH0 PUSH2 0xD56 DUP3 PUSH2 0xD2A JUMP JUMPDEST PUSH2 0xD60 DUP2 DUP6 PUSH2 0xD34 JUMP JUMPDEST SWAP4 POP PUSH2 0xD70 DUP2 DUP6 PUSH1 0x20 DUP7 ADD PUSH2 0xD3E JUMP JUMPDEST DUP1 DUP5 ADD SWAP2 POP POP SWAP3 SWAP2 POP POP JUMP JUMPDEST PUSH0 PUSH2 0xD87 DUP3 DUP5 PUSH2 0xD4C JUMP JUMPDEST SWAP2 POP DUP2 SWAP1 POP SWAP3 SWAP2 POP POP JUMP JUMPDEST PUSH0 DUP3 DUP3 MSTORE PUSH1 0x20 DUP3 ADD SWAP1 POP SWAP3 SWAP2 POP POP JUMP JUMPDEST PUSH0 PUSH2 0xDAC DUP3 PUSH2 0xD2A JUMP JUMPDEST PUSH2 0xDB6 DUP2 DUP6 PUSH2 0xD92 JUMP JUMPDEST SWAP4 POP PUSH2 0xDC6 DUP2 DUP6 PUSH1 0x20 DUP7 ADD PUSH2 0xD3E JUMP JUMPDEST PUSH2 0xDCF DUP2 PUSH2 0xB6E JUMP JUMPDEST DUP5 ADD SWAP2 POP POP SWAP3 SWAP2 POP POP JUMP JUMPDEST PUSH0 PUSH1 0x20 DUP3 ADD SWAP1 POP DUP2 DUP2 SUB PUSH0 DUP4 ADD MSTORE PUSH2 0xDF2 DUP2 DUP5 PUSH2 0xDA2 JUMP JUMPDEST SWAP1 POP SWAP3 SWAP2 POP POP JUMP JUMPDEST PUSH2 0xE03 DUP2 PUSH2 0x818 JUMP JUMPDEST DUP3 MSTORE POP POP JUMP JUMPDEST PUSH0 PUSH1 0x40 DUP3 ADD SWAP1 POP PUSH2 0xE1C PUSH0 DUP4 ADD DUP6 PUSH2 0xDFA JUMP JUMPDEST DUP2 DUP2 SUB PUSH1 0x20 DUP4 ADD MSTORE PUSH2 0xE2E DUP2 DUP5 PUSH2 0xDA2 JUMP JUMPDEST SWAP1 POP SWAP4 SWAP3 POP POP POP JUMP JUMPDEST PUSH0 PUSH32 0xFFFFFFFF00000000000000000000000000000000000000000000000000000000 DUP3 AND SWAP1 POP SWAP2 SWAP1 POP JUMP JUMPDEST PUSH2 0xE6B DUP2 PUSH2 0xE37 JUMP JUMPDEST DUP2 EQ PUSH2 0xE75 JUMPI PUSH0 DUP1 REVERT JUMPDEST POP JUMP JUMPDEST PUSH0 DUP2 MLOAD SWAP1 POP PUSH2 0xE86 DUP2 PUSH2 0xE62 JUMP JUMPDEST SWAP3 SWAP2 POP POP JUMP JUMPDEST PUSH0 PUSH1 0x20 DUP3 DUP5 SUB SLT ISZERO PUSH2 0xEA1 JUMPI PUSH2 0xEA0 PUSH2 0x7B6 JUMP JUMPDEST JUMPDEST PUSH0 PUSH2 0xEAE DUP5 DUP3 DUP6 ADD PUSH2 0xE78 JUMP JUMPDEST SWAP2 POP POP SWAP3 SWAP2 POP POP JUMP JUMPDEST PUSH0 DUP3 DUP3 MSTORE PUSH1 0x20 DUP3 ADD SWAP1 POP SWAP3 SWAP2 POP POP JUMP JUMPDEST PUSH32 0x5369676E617475726556616C696461746F72237265636F7665725369676E6572 PUSH0 DUP3 ADD MSTORE PUSH32 0x3A20696E76616C6964207369676E6174757265206C656E677468000000000000 PUSH1 0x20 DUP3 ADD MSTORE POP JUMP JUMPDEST PUSH0 PUSH2 0xF21 PUSH1 0x3A DUP4 PUSH2 0xEB7 JUMP JUMPDEST SWAP2 POP PUSH2 0xF2C DUP3 PUSH2 0xEC7 JUMP JUMPDEST PUSH1 0x40 DUP3 ADD SWAP1 POP SWAP2 SWAP1 POP JUMP JUMPDEST PUSH0 PUSH1 0x20 DUP3 ADD SWAP1 POP DUP2 DUP2 SUB PUSH0 DUP4 ADD MSTORE PUSH2 0xF4E DUP2 PUSH2 0xF15 JUMP JUMPDEST SWAP1 POP SWAP2 SWAP1 POP JUMP JUMPDEST PUSH32 0x4E487B7100000000000000000000000000000000000000000000000000000000 PUSH0 MSTORE PUSH1 0x32 PUSH1 0x4 MSTORE PUSH1 0x24 PUSH0 REVERT JUMPDEST PUSH32 0x5369676E617475726556616C696461746F723A20696E76616C6964207369676E PUSH0 DUP3 ADD MSTORE PUSH32 0x617475726520762076616C756500000000000000000000000000000000000000 PUSH1 0x20 DUP3 ADD MSTORE POP JUMP JUMPDEST PUSH0 PUSH2 0xFDC PUSH1 0x2D DUP4 PUSH2 0xEB7 JUMP JUMPDEST SWAP2 POP PUSH2 0xFE7 DUP3 PUSH2 0xF82 JUMP JUMPDEST PUSH1 0x40 DUP3 ADD SWAP1 POP SWAP2 SWAP1 POP JUMP JUMPDEST PUSH0 PUSH1 0x20 DUP3 ADD SWAP1 POP DUP2 DUP2 SUB PUSH0 DUP4 ADD MSTORE PUSH2 0x1009 DUP2 PUSH2 0xFD0 JUMP JUMPDEST SWAP1 POP SWAP2 SWAP1 POP JUMP JUMPDEST PUSH0 PUSH1 0xFF DUP3 AND SWAP1 POP SWAP2 SWAP1 POP JUMP JUMPDEST PUSH2 0x1025 DUP2 PUSH2 0x1010 JUMP JUMPDEST DUP3 MSTORE POP POP JUMP JUMPDEST PUSH0 PUSH1 0x80 DUP3 ADD SWAP1 POP PUSH2 0x103E PUSH0 DUP4 ADD DUP8 PUSH2 0xDFA JUMP JUMPDEST PUSH2 0x104B PUSH1 0x20 DUP4 ADD DUP7 PUSH2 0x101C JUMP JUMPDEST PUSH2 0x1058 PUSH1 0x40 DUP4 ADD DUP6 PUSH2 0xDFA JUMP JUMPDEST PUSH2 0x1065 PUSH1 0x60 DUP4 ADD DUP5 PUSH2 0xDFA JUMP JUMPDEST SWAP6 SWAP5 POP POP POP POP POP JUMP JUMPDEST PUSH2 0x1077 DUP2 PUSH2 0x7DD JUMP JUMPDEST DUP3 MSTORE POP POP JUMP JUMPDEST PUSH0 PUSH2 0x1088 DUP4 DUP6 PUSH2 0xD92 JUMP JUMPDEST SWAP4 POP PUSH2 0x1095 DUP4 DUP6 DUP5 PUSH2 0xC26 JUMP JUMPDEST PUSH2 0x109E DUP4 PUSH2 0xB6E JUMP JUMPDEST DUP5 ADD SWAP1 POP SWAP4 SWAP3 POP POP POP JUMP JUMPDEST PUSH0 PUSH1 0xA0 DUP3 ADD SWAP1 POP PUSH2 0x10BC PUSH0 DUP4 ADD DUP10 PUSH2 0x106E JUMP JUMPDEST PUSH2 0x10C9 PUSH1 0x20 DUP4 ADD DUP9 PUSH2 0xDFA JUMP JUMPDEST DUP2 DUP2 SUB PUSH1 0x40 DUP4 ADD MSTORE PUSH2 0x10DC DUP2 DUP7 DUP9 PUSH2 0x107D JUMP JUMPDEST SWAP1 POP PUSH2 0x10EB PUSH1 0x60 DUP4 ADD DUP6 PUSH2 0x977 JUMP JUMPDEST PUSH2 0x10F8 PUSH1 0x80 DUP4 ADD DUP5 PUSH2 0x977 JUMP JUMPDEST SWAP8 SWAP7 POP POP POP POP POP POP POP JUMP JUMPDEST PUSH0 DUP2 MLOAD SWAP1 POP PUSH2 0x1111 DUP2 PUSH2 0x8B7 JUMP JUMPDEST SWAP3 SWAP2 POP POP JUMP JUMPDEST PUSH0 PUSH1 0x20 DUP3 DUP5 SUB SLT ISZERO PUSH2 0x112C JUMPI PUSH2 0x112B PUSH2 0x7B6 JUMP JUMPDEST JUMPDEST PUSH0 PUSH2 0x1139 DUP5 DUP3 DUP6 ADD PUSH2 0x1103 JUMP JUMPDEST SWAP2 POP POP SWAP3 SWAP2 POP POP JUMP INVALID LOG2 PUSH5 0x6970667358 0x22 SLT KECCAK256 SDIV 0xE0 0x4E 0xE3 0xB8 SWAP11 MSTORE DIV DUP9 POP 0xD3 BASEFEE SWAP12 SWAP15 SLT MLOAD RETURNDATASIZE SWAP15 ISZERO 0xCC 0xEC BALANCE 0xCA BASEFEE SELFDESTRUCT DUP13 0xE 0xC3 0xB8 0x2F 0xED DUP7 PUSH5 0x736F6C6343 STOP ADDMOD BYTE STOP CALLER "
		},
		"gasEstimates": {
			"creation": {
				"codeDepositCost": "894400",
				"executionCost": "927",
				"totalCost": "895327"
			},
			"external": {
				"isValidSig(address,bytes32,bytes)": "infinite",
				"isValidSigImpl(address,bytes32,bytes,bool,bool)": "infinite",
				"isValidSigWithSideEffects(address,bytes32,bytes)": "infinite"
			}
		},
		"methodIdentifiers": {
			"isValidSig(address,bytes32,bytes)": "98ef1ed8",
			"isValidSigImpl(address,bytes32,bytes,bool,bool)": "76be4cea",
			"isValidSigWithSideEffects(address,bytes32,bytes)": "8f068430"
		}
	},
	"abi": [
		{
			"inputs": [
				{
					"internalType": "bytes",
					"name": "error",
					"type": "bytes"
				}
			],
			"name": "ERC1271Revert",
			"type": "error"
		},
		{
			"inputs": [
				{
					"internalType": "bytes",
					"name": "error",
					"type": "bytes"
				}
			],
			"name": "ERC6492DeployFailed",
			"type": "error"
		},
		{
			"inputs": [
				{
					"internalType": "address",
					"name": "_signer",
					"type": "address"
				},
				{
					"internalType": "bytes32",
					"name": "_hash",
					"type": "bytes32"
				},
				{
					"internalType": "bytes",
					"name": "_signature",
					"type": "bytes"
				}
			],
			"name": "isValidSig",
			"outputs": [
				{
					"internalType": "bool",
					"name": "",
					"type": "bool"
				}
			],
			"stateMutability": "nonpayable",
			"type": "function"
		},
		{
			"inputs": [
				{
					"internalType": "address",
					"name": "_signer",
					"type": "address"
				},
				{
					"internalType": "bytes32",
					"name": "_hash",
					"type": "bytes32"
				},
				{
					"internalType": "bytes",
					"name": "_signature",
					"type": "bytes"
				},
				{
					"internalType": "bool",
					"name": "allowSideEffects",
					"type": "bool"
				},
				{
					"internalType": "bool",
					"name": "tryPrepare",
					"type": "bool"
				}
			],
			"name": "isValidSigImpl",
			"outputs": [
				{
					"internalType": "bool",
					"name": "",
					"type": "bool"
				}
			],
			"stateMutability": "nonpayable",
			"type": "function"
		},
		{
			"inputs": [
				{
					"internalType": "address",
					"name": "_signer",
					"type": "address"
				},
				{
					"internalType": "bytes32",
					"name": "_hash",
					"type": "bytes32"
				},
				{
					"internalType": "bytes",
					"name": "_signature",
					"type": "bytes"
				}
			],
			"name": "isValidSigWithSideEffects",
			"outputs": [
				{
					"internalType": "bool",
					"name": "",
					"type": "bool"
				}
			],
			"stateMutability": "nonpayable",
			"type": "function"
		}
	]
}